{
  "contractName": "BowheadDevChallenge",
  "abi": [
    {
      "anonymous": false,
      "inputs": [
        {
          "indexed": false,
          "internalType": "address",
          "name": "user",
          "type": "address"
        },
        {
          "indexed": false,
          "internalType": "uint256",
          "name": "earning",
          "type": "uint256"
        }
      ],
      "name": "NewUserEarnings",
      "type": "event"
    },
    {
      "anonymous": false,
      "inputs": [
        {
          "indexed": false,
          "internalType": "address",
          "name": "user",
          "type": "address"
        },
        {
          "indexed": false,
          "internalType": "uint256",
          "name": "level",
          "type": "uint256"
        }
      ],
      "name": "UserRegistered",
      "type": "event"
    },
    {
      "inputs": [
        {
          "internalType": "uint256",
          "name": "level",
          "type": "uint256"
        }
      ],
      "name": "registerUser",
      "outputs": [],
      "stateMutability": "nonpayable",
      "type": "function"
    },
    {
      "inputs": [
        {
          "internalType": "bytes32",
          "name": "data",
          "type": "bytes32"
        }
      ],
      "name": "addHealthData",
      "outputs": [],
      "stateMutability": "nonpayable",
      "type": "function"
    },
    {
      "inputs": [],
      "name": "getHealthData",
      "outputs": [
        {
          "internalType": "bytes32[]",
          "name": "userData",
          "type": "bytes32[]"
        }
      ],
      "stateMutability": "view",
      "type": "function",
      "constant": true
    }
  ],
  "bytecode": "0x608060405234801561001057600080fd5b50610456806100206000396000f3fe608060405234801561001057600080fd5b506004361061005d577c010000000000000000000000000000000000000000000000000000000060003504631bbfae0e8114610062578063919932d214610077578063e232953914610095575b600080fd5b61007561007036600461035d565b6100a8565b005b61007f610163565b60405161008c9190610376565b60405180910390f35b6100756100a336600461035d565b61023d565b60008111610117576040517f08c379a000000000000000000000000000000000000000000000000000000000815260206004820181905260248201527f546865206c6576656c206d7573742062652067726561746572207468616e203060448201526064015b60405180910390fd5b3360008181526020818152604091829020849055815192835282018390527fe29d35093005f4d575e1003753426b57a7f64378ba73332eef9c6ccc2b8decd6910160405180910390a150565b33600090815260208190526040902054606090806101dd576040517f08c379a000000000000000000000000000000000000000000000000000000000815260206004820152601760248201527f546865207573657220646f6573206e6f74206578697374000000000000000000604482015260640161010e565b336000908152600260209081526040918290208054835181840281018401909452808452909183018282801561023257602002820191906000526020600020905b81548152602001906001019080831161021e575b505050505091505090565b33600090815260208190526040902054806102b4576040517f08c379a000000000000000000000000000000000000000000000000000000000815260206004820152601760248201527f546865207573657220646f6573206e6f74206578697374000000000000000000604482015260640161010e565b3360009081526001602081905260408220546102cf916103e9565b336000818152600160208181526040808420869055600282528320805492830181558352909120018590559091507fe5757054728aef6cf2a9fad0ec3f084d682d2236659f4251f1e3f1f189b65ecc906103298385610401565b6040805173ffffffffffffffffffffffffffffffffffffffff909316835260208301919091520160405180910390a1505050565b60006020828403121561036f57600080fd5b5035919050565b6020808252825182820181905260009190848201906040850190845b818110156103ae57835183529284019291840191600101610392565b50909695505050505050565b7f4e487b7100000000000000000000000000000000000000000000000000000000600052601160045260246000fd5b600082198211156103fc576103fc6103ba565b500190565b600081600019048311821515161561041b5761041b6103ba565b50029056fea264697066735822122038e77605f72ba8e2e4839bc4504b302265fe7b6abd9cc2761b5dfdb8034d839f64736f6c634300080f0033",
  "immutableReferences": {},
  "source": "//SPDX-License-Identifier: Unlicense\r\npragma solidity ^0.8.0;\r\n\r\ncontract BowheadDevChallenge {\r\n  mapping(address => uint) private UserLevel;\r\n  mapping(address => uint) private UserDataSubmissions;\r\n  mapping(address => bytes32[]) private UserData;\r\n\r\n  event UserRegistered(address user, uint level);\r\n  event NewUserEarnings(address user, uint earning);\r\n\r\n  function registerUser(uint level) external {\r\n    require(level > 0, 'The level must be greater than 0');\r\n    UserLevel[msg.sender] = level;\r\n    emit UserRegistered(msg.sender, level);\r\n  }\r\n\r\n  function addHealthData(bytes32 data) external {\r\n    uint userLevel = UserLevel[msg.sender];\r\n    require(userLevel > 0, 'The user does not exist');\r\n\r\n    uint submissions = UserDataSubmissions[msg.sender] + 1;\r\n    UserDataSubmissions[msg.sender] = submissions;\r\n\r\n    UserData[msg.sender].push(data);\r\n\r\n    emit NewUserEarnings(msg.sender, userLevel * submissions);\r\n  }\r\n\r\n  function getHealthData() external view returns (bytes32[] memory userData){\r\n    uint userLevel = UserLevel[msg.sender];\r\n    require(userLevel > 0, 'The user does not exist');\r\n\r\n    return UserData[msg.sender];\r\n  }\r\n\r\n\r\n}",
  "sourcePath": "C:\\Users\\Hector Zapata\\OneDrive\\Escritorio\\Web3 Last project\\interview-challenge\\block-chain\\contracts\\BowheadDevChallenge.sol",
  "compiler": {
    "name": "solc",
    "version": "0.8.15+commit.e14f2714.Emscripten.clang"
  },
  "schemaVersion": "3.4.7",
  "updatedAt": "2022-06-29T16:52:45.712Z",
  "networkType": "ethereum",
  "devdoc": {
    "kind": "dev",
    "methods": {},
    "version": 1
  },
  "userdoc": {
    "kind": "user",
    "methods": {},
    "version": 1
  }
}