{
    "_format": "hh-sol-artifact-1",
    "contractName": "BowheadDevChallenge",
    "sourceName": "contracts/BowheadDevChallenge.sol",
    "abi": [
        {
            "anonymous": false,
            "inputs": [
                {
                    "indexed": false,
                    "internalType": "address",
                    "name": "user",
                    "type": "address"
                },
                {
                    "indexed": false,
                    "internalType": "uint256",
                    "name": "earning",
                    "type": "uint256"
                }
            ],
            "name": "NewUserEarnings",
            "type": "event"
        },
        {
            "anonymous": false,
            "inputs": [
                {
                    "indexed": false,
                    "internalType": "address",
                    "name": "user",
                    "type": "address"
                },
                {
                    "indexed": false,
                    "internalType": "uint256",
                    "name": "level",
                    "type": "uint256"
                }
            ],
            "name": "UserRegistered",
            "type": "event"
        },
        {
            "inputs": [
                {
                    "internalType": "bytes32",
                    "name": "data",
                    "type": "bytes32"
                }
            ],
            "name": "addHealthData",
            "outputs": [],
            "stateMutability": "nonpayable",
            "type": "function"
        },
        {
            "inputs": [],
            "name": "getHealthData",
            "outputs": [
                {
                    "internalType": "bytes32[]",
                    "name": "userData",
                    "type": "bytes32[]"
                }
            ],
            "stateMutability": "view",
            "type": "function"
        },
        {
            "inputs": [
                {
                    "internalType": "uint256",
                    "name": "level",
                    "type": "uint256"
                }
            ],
            "name": "registerUser",
            "outputs": [],
            "stateMutability": "nonpayable",
            "type": "function"
        }
    ],
    "bytecode": "0x608060405234801561001057600080fd5b5061083f806100206000396000f3fe608060405234801561001057600080fd5b50600436106100415760003560e01c80631bbfae0e14610046578063919932d214610062578063e232953914610080575b600080fd5b610060600480360381019061005b9190610495565b61009c565b005b61006a61015e565b604051610077919061060a565b60405180910390f35b61009a6004803603810190610095919061046c565b61027a565b005b600081116100df576040517f08c379a00000000000000000000000000000000000000000000000000000000081526004016100d69061062c565b60405180910390fd5b806000803373ffffffffffffffffffffffffffffffffffffffff1673ffffffffffffffffffffffffffffffffffffffff168152602001908152602001600020819055507fe29d35093005f4d575e1003753426b57a7f64378ba73332eef9c6ccc2b8decd633826040516101539291906105e1565b60405180910390a150565b606060008060003373ffffffffffffffffffffffffffffffffffffffff1673ffffffffffffffffffffffffffffffffffffffff168152602001908152602001600020549050600081116101e6576040517f08c379a00000000000000000000000000000000000000000000000000000000081526004016101dd9061064c565b60405180910390fd5b600260003373ffffffffffffffffffffffffffffffffffffffff1673ffffffffffffffffffffffffffffffffffffffff16815260200190815260200160002080548060200260200160405190810160405280929190818152602001828054801561026f57602002820191906000526020600020905b81548152602001906001019080831161025b575b505050505091505090565b60008060003373ffffffffffffffffffffffffffffffffffffffff1673ffffffffffffffffffffffffffffffffffffffff16815260200190815260200160002054905060008111610300576040517f08c379a00000000000000000000000000000000000000000000000000000000081526004016102f79061064c565b60405180910390fd5b600060018060003373ffffffffffffffffffffffffffffffffffffffff1673ffffffffffffffffffffffffffffffffffffffff1681526020019081526020016000205461034d91906106b6565b905080600160003373ffffffffffffffffffffffffffffffffffffffff1673ffffffffffffffffffffffffffffffffffffffff16815260200190815260200160002081905550600260003373ffffffffffffffffffffffffffffffffffffffff1673ffffffffffffffffffffffffffffffffffffffff1681526020019081526020016000208390806001815401808255809150506001900390600052602060002001600090919091909150557fe5757054728aef6cf2a9fad0ec3f084d682d2236659f4251f1e3f1f189b65ecc338284610427919061070c565b6040516104359291906105e1565b60405180910390a1505050565b600081359050610451816107db565b92915050565b600081359050610466816107f2565b92915050565b60006020828403121561047e57600080fd5b600061048c84828501610442565b91505092915050565b6000602082840312156104a757600080fd5b60006104b584828501610457565b91505092915050565b60006104ca8383610543565b60208301905092915050565b6104df81610766565b82525050565b60006104f08261067c565b6104fa8185610694565b93506105058361066c565b8060005b8381101561053657815161051d88826104be565b975061052883610687565b925050600181019050610509565b5085935050505092915050565b61054c81610778565b82525050565b600061055f6020836106a5565b91507f546865206c6576656c206d7573742062652067726561746572207468616e20306000830152602082019050919050565b600061059f6017836106a5565b91507f546865207573657220646f6573206e6f742065786973740000000000000000006000830152602082019050919050565b6105db816107a2565b82525050565b60006040820190506105f660008301856104d6565b61060360208301846105d2565b9392505050565b6000602082019050818103600083015261062481846104e5565b905092915050565b6000602082019050818103600083015261064581610552565b9050919050565b6000602082019050818103600083015261066581610592565b9050919050565b6000819050602082019050919050565b600081519050919050565b6000602082019050919050565b600082825260208201905092915050565b600082825260208201905092915050565b60006106c1826107a2565b91506106cc836107a2565b9250827fffffffffffffffffffffffffffffffffffffffffffffffffffffffffffffffff03821115610701576107006107ac565b5b828201905092915050565b6000610717826107a2565b9150610722836107a2565b9250817fffffffffffffffffffffffffffffffffffffffffffffffffffffffffffffffff048311821515161561075b5761075a6107ac565b5b828202905092915050565b600061077182610782565b9050919050565b6000819050919050565b600073ffffffffffffffffffffffffffffffffffffffff82169050919050565b6000819050919050565b7f4e487b7100000000000000000000000000000000000000000000000000000000600052601160045260246000fd5b6107e481610778565b81146107ef57600080fd5b50565b6107fb816107a2565b811461080657600080fd5b5056fea26469706673582212201f9bc467dc18a1f4e64e53b2bfa4f1da9abb473a3b89c4d9f9de5dadbc2d956264736f6c63430008000033",
    "linkReferences": {},
    "deployedLinkReferences": {}
}